{
  "_format": "hh-sol-artifact-1",
  "contractName": "ScholarGraph",
  "sourceName": "contracts/ScholarGraph.sol",
  "abi": [
    {
      "anonymous": false,
      "inputs": [
        {
          "indexed": true,
          "internalType": "address",
          "name": "contributor",
          "type": "address"
        },
        {
          "indexed": false,
          "internalType": "string",
          "name": "doi",
          "type": "string"
        },
        {
          "indexed": false,
          "internalType": "bytes32",
          "name": "hash",
          "type": "bytes32"
        }
      ],
      "name": "PaperAdded",
      "type": "event"
    },
    {
      "inputs": [
        {
          "internalType": "string",
          "name": "doi",
          "type": "string"
        },
        {
          "internalType": "bytes32",
          "name": "hash",
          "type": "bytes32"
        }
      ],
      "name": "addPaper",
      "outputs": [],
      "stateMutability": "nonpayable",
      "type": "function"
    },
    {
      "inputs": [
        {
          "internalType": "string",
          "name": "doi",
          "type": "string"
        }
      ],
      "name": "getPaper",
      "outputs": [
        {
          "components": [
            {
              "internalType": "string",
              "name": "doi",
              "type": "string"
            },
            {
              "internalType": "bytes32",
              "name": "hash",
              "type": "bytes32"
            },
            {
              "internalType": "address",
              "name": "contributor",
              "type": "address"
            }
          ],
          "internalType": "struct ScholarGraph.Paper",
          "name": "",
          "type": "tuple"
        }
      ],
      "stateMutability": "view",
      "type": "function"
    },
    {
      "inputs": [
        {
          "internalType": "string",
          "name": "",
          "type": "string"
        }
      ],
      "name": "papers",
      "outputs": [
        {
          "internalType": "string",
          "name": "doi",
          "type": "string"
        },
        {
          "internalType": "bytes32",
          "name": "hash",
          "type": "bytes32"
        },
        {
          "internalType": "address",
          "name": "contributor",
          "type": "address"
        }
      ],
      "stateMutability": "view",
      "type": "function"
    }
  ],
  "bytecode": "0x608060405234801561001057600080fd5b50610cf6806100206000396000f3fe608060405234801561001057600080fd5b50600436106100415760003560e01c806369071c7014610046578063b6c9c2b014610078578063df07947314610094575b600080fd5b610060600480360381019061005b9190610627565b6100c4565b60405161006f93929190610749565b60405180910390f35b610092600480360381019061008d91906107b3565b6101ac565b005b6100ae60048036038101906100a99190610627565b610369565b6040516100bb91906108c7565b60405180910390f35b6000818051602081018201805184825260208301602085012081835280955050505050506000915090508060000180546100fd90610918565b80601f016020809104026020016040519081016040528092919081815260200182805461012990610918565b80156101765780601f1061014b57610100808354040283529160200191610176565b820191906000526020600020905b81548152906001019060200180831161015957829003601f168201915b5050505050908060010154908060020160009054906101000a900473ffffffffffffffffffffffffffffffffffffffff16905083565b600073ffffffffffffffffffffffffffffffffffffffff166000836040516101d49190610985565b908152602001604051809103902060020160009054906101000a900473ffffffffffffffffffffffffffffffffffffffff1673ffffffffffffffffffffffffffffffffffffffff161461025c576040517f08c379a0000000000000000000000000000000000000000000000000000000008152600401610253906109e8565b60405180910390fd5b60405180606001604052808381526020018281526020013373ffffffffffffffffffffffffffffffffffffffff1681525060008360405161029d9190610985565b908152602001604051809103902060008201518160000190816102c09190610bbe565b506020820151816001015560408201518160020160006101000a81548173ffffffffffffffffffffffffffffffffffffffff021916908373ffffffffffffffffffffffffffffffffffffffff1602179055509050503373ffffffffffffffffffffffffffffffffffffffff167fb40b8c3b0d2f396cc65b0d11a807bad8bcda113615d94ed20456978741ac7088838360405161035d929190610c90565b60405180910390a25050565b610371610493565b6000826040516103819190610985565b90815260200160405180910390206040518060600160405290816000820180546103aa90610918565b80601f01602080910402602001604051908101604052809291908181526020018280546103d690610918565b80156104235780601f106103f857610100808354040283529160200191610423565b820191906000526020600020905b81548152906001019060200180831161040657829003601f168201915b50505050508152602001600182015481526020016002820160009054906101000a900473ffffffffffffffffffffffffffffffffffffffff1673ffffffffffffffffffffffffffffffffffffffff1673ffffffffffffffffffffffffffffffffffffffff16815250509050919050565b60405180606001604052806060815260200160008019168152602001600073ffffffffffffffffffffffffffffffffffffffff1681525090565b6000604051905090565b600080fd5b600080fd5b600080fd5b600080fd5b6000601f19601f8301169050919050565b7f4e487b7100000000000000000000000000000000000000000000000000000000600052604160045260246000fd5b610534826104eb565b810181811067ffffffffffffffff82111715610553576105526104fc565b5b80604052505050565b60006105666104cd565b9050610572828261052b565b919050565b600067ffffffffffffffff821115610592576105916104fc565b5b61059b826104eb565b9050602081019050919050565b82818337600083830152505050565b60006105ca6105c584610577565b61055c565b9050828152602081018484840111156105e6576105e56104e6565b5b6105f18482856105a8565b509392505050565b600082601f83011261060e5761060d6104e1565b5b813561061e8482602086016105b7565b91505092915050565b60006020828403121561063d5761063c6104d7565b5b600082013567ffffffffffffffff81111561065b5761065a6104dc565b5b610667848285016105f9565b91505092915050565b600081519050919050565b600082825260208201905092915050565b60005b838110156106aa57808201518184015260208101905061068f565b60008484015250505050565b60006106c182610670565b6106cb818561067b565b93506106db81856020860161068c565b6106e4816104eb565b840191505092915050565b6000819050919050565b610702816106ef565b82525050565b600073ffffffffffffffffffffffffffffffffffffffff82169050919050565b600061073382610708565b9050919050565b61074381610728565b82525050565b6000606082019050818103600083015261076381866106b6565b905061077260208301856106f9565b61077f604083018461073a565b949350505050565b610790816106ef565b811461079b57600080fd5b50565b6000813590506107ad81610787565b92915050565b600080604083850312156107ca576107c96104d7565b5b600083013567ffffffffffffffff8111156107e8576107e76104dc565b5b6107f4858286016105f9565b92505060206108058582860161079e565b9150509250929050565b600082825260208201905092915050565b600061082b82610670565b610835818561080f565b935061084581856020860161068c565b61084e816104eb565b840191505092915050565b610862816106ef565b82525050565b61087181610728565b82525050565b600060608301600083015184820360008601526108948282610820565b91505060208301516108a96020860182610859565b5060408301516108bc6040860182610868565b508091505092915050565b600060208201905081810360008301526108e18184610877565b905092915050565b7f4e487b7100000000000000000000000000000000000000000000000000000000600052602260045260246000fd5b6000600282049050600182168061093057607f821691505b602082108103610943576109426108e9565b5b50919050565b600081905092915050565b600061095f82610670565b6109698185610949565b935061097981856020860161068c565b80840191505092915050565b60006109918284610954565b915081905092915050565b7f506170657220616c726561647920657869737473000000000000000000000000600082015250565b60006109d260148361067b565b91506109dd8261099c565b602082019050919050565b60006020820190508181036000830152610a01816109c5565b9050919050565b60008190508160005260206000209050919050565b60006020601f8301049050919050565b600082821b905092915050565b600060088302610a6a7fffffffffffffffffffffffffffffffffffffffffffffffffffffffffffffffff82610a2d565b610a748683610a2d565b95508019841693508086168417925050509392505050565b6000819050919050565b6000819050919050565b6000610abb610ab6610ab184610a8c565b610a96565b610a8c565b9050919050565b6000819050919050565b610ad583610aa0565b610ae9610ae182610ac2565b848454610a3a565b825550505050565b600090565b610afe610af1565b610b09818484610acc565b505050565b5b81811015610b2d57610b22600082610af6565b600181019050610b0f565b5050565b601f821115610b7257610b4381610a08565b610b4c84610a1d565b81016020851015610b5b578190505b610b6f610b6785610a1d565b830182610b0e565b50505b505050565b600082821c905092915050565b6000610b9560001984600802610b77565b1980831691505092915050565b6000610bae8383610b84565b9150826002028217905092915050565b610bc782610670565b67ffffffffffffffff811115610be057610bdf6104fc565b5b610bea8254610918565b610bf5828285610b31565b600060209050601f831160018114610c285760008415610c16578287015190505b610c208582610ba2565b865550610c88565b601f198416610c3686610a08565b60005b82811015610c5e57848901518255600182019150602085019450602081019050610c39565b86831015610c7b5784890151610c77601f891682610b84565b8355505b6001600288020188555050505b505050505050565b60006040820190508181036000830152610caa81856106b6565b9050610cb960208301846106f9565b939250505056fea2646970667358221220962fb12fa6b3dafe36792cb34b9406030f8543185a5b7c6fe2ea27e9aa1d892864736f6c63430008140033",
  "linkReferences": {},
  "deployedLinkReferences": {}
}